{
  "_format": "hh-sol-artifact-1",
  "contractName": "ETHcertifyPlatform",
  "sourceName": "contracts/ETHcertifyPlatform.sol",
  "abi": [
    {
      "inputs": [],
      "stateMutability": "nonpayable",
      "type": "constructor"
    },
    {
      "anonymous": false,
      "inputs": [
        {
          "indexed": true,
          "internalType": "bytes32",
          "name": "certHash",
          "type": "bytes32"
        },
        {
          "indexed": false,
          "internalType": "string",
          "name": "studentName",
          "type": "string"
        },
        {
          "indexed": false,
          "internalType": "string",
          "name": "courseName",
          "type": "string"
        },
        {
          "indexed": false,
          "internalType": "string",
          "name": "ipfsHash",
          "type": "string"
        }
      ],
      "name": "CertificateIssued",
      "type": "event"
    },
    {
      "anonymous": false,
      "inputs": [
        {
          "indexed": true,
          "internalType": "bytes32",
          "name": "certHash",
          "type": "bytes32"
        }
      ],
      "name": "CertificateRevoked",
      "type": "event"
    },
    {
      "inputs": [
        {
          "internalType": "uint256",
          "name": "",
          "type": "uint256"
        }
      ],
      "name": "certificateHashes",
      "outputs": [
        {
          "internalType": "bytes32",
          "name": "",
          "type": "bytes32"
        }
      ],
      "stateMutability": "view",
      "type": "function"
    },
    {
      "inputs": [
        {
          "internalType": "bytes32",
          "name": "",
          "type": "bytes32"
        }
      ],
      "name": "certificates",
      "outputs": [
        {
          "internalType": "string",
          "name": "studentName",
          "type": "string"
        },
        {
          "internalType": "string",
          "name": "courseName",
          "type": "string"
        },
        {
          "internalType": "uint256",
          "name": "issueDate",
          "type": "uint256"
        },
        {
          "internalType": "bool",
          "name": "isValid",
          "type": "bool"
        },
        {
          "internalType": "string",
          "name": "ipfsHash",
          "type": "string"
        }
      ],
      "stateMutability": "view",
      "type": "function"
    },
    {
      "inputs": [],
      "name": "getAllCertificates",
      "outputs": [
        {
          "components": [
            {
              "internalType": "string",
              "name": "studentName",
              "type": "string"
            },
            {
              "internalType": "string",
              "name": "courseName",
              "type": "string"
            },
            {
              "internalType": "uint256",
              "name": "issueDate",
              "type": "uint256"
            },
            {
              "internalType": "bool",
              "name": "isValid",
              "type": "bool"
            },
            {
              "internalType": "string",
              "name": "ipfsHash",
              "type": "string"
            }
          ],
          "internalType": "struct ETHcertifyPlatform.Certificate[]",
          "name": "",
          "type": "tuple[]"
        }
      ],
      "stateMutability": "view",
      "type": "function"
    },
    {
      "inputs": [
        {
          "internalType": "string",
          "name": "studentName",
          "type": "string"
        },
        {
          "internalType": "string",
          "name": "courseName",
          "type": "string"
        },
        {
          "internalType": "string",
          "name": "ipfsHash",
          "type": "string"
        }
      ],
      "name": "issueCertificate",
      "outputs": [
        {
          "internalType": "bytes32",
          "name": "",
          "type": "bytes32"
        }
      ],
      "stateMutability": "nonpayable",
      "type": "function"
    },
    {
      "inputs": [],
      "name": "owner",
      "outputs": [
        {
          "internalType": "address",
          "name": "",
          "type": "address"
        }
      ],
      "stateMutability": "view",
      "type": "function"
    },
    {
      "inputs": [
        {
          "internalType": "bytes32",
          "name": "certHash",
          "type": "bytes32"
        }
      ],
      "name": "revokeCertificate",
      "outputs": [],
      "stateMutability": "nonpayable",
      "type": "function"
    },
    {
      "inputs": [
        {
          "internalType": "bytes32",
          "name": "certHash",
          "type": "bytes32"
        }
      ],
      "name": "validateCertificate",
      "outputs": [
        {
          "internalType": "bool",
          "name": "",
          "type": "bool"
        },
        {
          "internalType": "string",
          "name": "",
          "type": "string"
        },
        {
          "internalType": "string",
          "name": "",
          "type": "string"
        },
        {
          "internalType": "uint256",
          "name": "",
          "type": "uint256"
        },
        {
          "internalType": "string",
          "name": "",
          "type": "string"
        }
      ],
      "stateMutability": "view",
      "type": "function"
    }
  ],
  "bytecode": "0x6080604052348015600f57600080fd5b50336000806101000a81548173ffffffffffffffffffffffffffffffffffffffff021916908373ffffffffffffffffffffffffffffffffffffffff1602179055506117c48061005f6000396000f3fe608060405234801561001057600080fd5b506004361061007d5760003560e01c8063a1735e711161005b578063a1735e71146100f2578063beec1caa14610122578063c6cbc52a14610152578063e4f50ff91461016e5761007d565b806313fcfe8014610082578063742f0688146100a05780638da5cb5b146100d4575b600080fd5b61008a6101a2565b6040516100979190610e19565b60405180910390f35b6100ba60048036038101906100b59190610e85565b61045c565b6040516100cb959493929190610f1a565b60405180910390f35b6100dc610637565b6040516100e99190610fc3565b60405180910390f35b61010c6004803603810190610107919061100a565b61065b565b6040516101199190611046565b60405180910390f35b61013c60048036038101906101379190611196565b61067f565b6040516101499190611046565b60405180910390f35b61016c60048036038101906101679190610e85565b61085b565b005b61018860048036038101906101839190610e85565b6109ab565b60405161019995949392919061123d565b60405180910390f35b60606000600280549050905060008167ffffffffffffffff8111156101ca576101c961106b565b5b60405190808252806020026020018201604052801561020357816020015b6101f0610bde565b8152602001906001900390816101e85790505b50905060005b82811015610453576001600060028381548110610229576102286112a5565b5b906000526020600020015481526020019081526020016000206040518060a001604052908160008201805461025d90611303565b80601f016020809104026020016040519081016040528092919081815260200182805461028990611303565b80156102d65780601f106102ab576101008083540402835291602001916102d6565b820191906000526020600020905b8154815290600101906020018083116102b957829003601f168201915b505050505081526020016001820180546102ef90611303565b80601f016020809104026020016040519081016040528092919081815260200182805461031b90611303565b80156103685780601f1061033d57610100808354040283529160200191610368565b820191906000526020600020905b81548152906001019060200180831161034b57829003601f168201915b50505050508152602001600282015481526020016003820160009054906101000a900460ff161515151581526020016004820180546103a690611303565b80601f01602080910402602001604051908101604052809291908181526020018280546103d290611303565b801561041f5780601f106103f45761010080835404028352916020019161041f565b820191906000526020600020905b81548152906001019060200180831161040257829003601f168201915b50505050508152505082828151811061043b5761043a6112a5565b5b60200260200101819052508080600101915050610209565b50809250505090565b600160205280600052604060002060009150905080600001805461047f90611303565b80601f01602080910402602001604051908101604052809291908181526020018280546104ab90611303565b80156104f85780601f106104cd576101008083540402835291602001916104f8565b820191906000526020600020905b8154815290600101906020018083116104db57829003601f168201915b50505050509080600101805461050d90611303565b80601f016020809104026020016040519081016040528092919081815260200182805461053990611303565b80156105865780601f1061055b57610100808354040283529160200191610586565b820191906000526020600020905b81548152906001019060200180831161056957829003601f168201915b5050505050908060020154908060030160009054906101000a900460ff16908060040180546105b490611303565b80601f01602080910402602001604051908101604052809291908181526020018280546105e090611303565b801561062d5780601f106106025761010080835404028352916020019161062d565b820191906000526020600020905b81548152906001019060200180831161061057829003601f168201915b5050505050905085565b60008054906101000a900473ffffffffffffffffffffffffffffffffffffffff1681565b6002818154811061066b57600080fd5b906000526020600020016000915090505481565b60008060009054906101000a900473ffffffffffffffffffffffffffffffffffffffff1673ffffffffffffffffffffffffffffffffffffffff163373ffffffffffffffffffffffffffffffffffffffff1614610710576040517f08c379a000000000000000000000000000000000000000000000000000000000815260040161070790611380565b60405180910390fd5b6000848442604051602001610727939291906113fd565b6040516020818303038152906040528051906020012090506040518060a001604052808681526020018581526020014281526020016001151581526020018481525060016000838152602001908152602001600020600082015181600001908161079191906115de565b5060208201518160010190816107a791906115de565b506040820151816002015560608201518160030160006101000a81548160ff02191690831515021790555060808201518160040190816107e791906115de565b509050506002819080600181540180825580915050600190039060005260206000200160009091909190915055807f7c4d0022612c8427bebc27dd207fe7a6352aa564c738893ff6b184f40d4cddca868686604051610848939291906116b0565b60405180910390a2809150509392505050565b60008054906101000a900473ffffffffffffffffffffffffffffffffffffffff1673ffffffffffffffffffffffffffffffffffffffff163373ffffffffffffffffffffffffffffffffffffffff16146108e9576040517f08c379a00000000000000000000000000000000000000000000000000000000081526004016108e090611380565b60405180910390fd5b6001600082815260200190815260200160002060030160009054906101000a900460ff1661094c576040517f08c379a00000000000000000000000000000000000000000000000000000000081526004016109439061176e565b60405180910390fd5b60006001600083815260200190815260200160002060030160006101000a81548160ff021916908315150217905550807f44d80a438cb4fa3b5aedbe551ce3d9382e37f446917b783e1dee70a03b4180e360405160405180910390a250565b6000606080600060606000600160008881526020019081526020016000206040518060a00160405290816000820180546109e490611303565b80601f0160208091040260200160405190810160405280929190818152602001828054610a1090611303565b8015610a5d5780601f10610a3257610100808354040283529160200191610a5d565b820191906000526020600020905b815481529060010190602001808311610a4057829003601f168201915b50505050508152602001600182018054610a7690611303565b80601f0160208091040260200160405190810160405280929190818152602001828054610aa290611303565b8015610aef5780601f10610ac457610100808354040283529160200191610aef565b820191906000526020600020905b815481529060010190602001808311610ad257829003601f168201915b50505050508152602001600282015481526020016003820160009054906101000a900460ff16151515158152602001600482018054610b2d90611303565b80601f0160208091040260200160405190810160405280929190818152602001828054610b5990611303565b8015610ba65780601f10610b7b57610100808354040283529160200191610ba6565b820191906000526020600020905b815481529060010190602001808311610b8957829003601f168201915b505050505081525050905080606001518160000151826020015183604001518460800151955095509550955095505091939590929450565b6040518060a00160405280606081526020016060815260200160008152602001600015158152602001606081525090565b600081519050919050565b600082825260208201905092915050565b6000819050602082019050919050565b600081519050919050565b600082825260208201905092915050565b60005b83811015610c75578082015181840152602081019050610c5a565b60008484015250505050565b6000601f19601f8301169050919050565b6000610c9d82610c3b565b610ca78185610c46565b9350610cb7818560208601610c57565b610cc081610c81565b840191505092915050565b6000819050919050565b610cde81610ccb565b82525050565b60008115159050919050565b610cf981610ce4565b82525050565b600060a0830160008301518482036000860152610d1c8282610c92565b91505060208301518482036020860152610d368282610c92565b9150506040830151610d4b6040860182610cd5565b506060830151610d5e6060860182610cf0565b5060808301518482036080860152610d768282610c92565b9150508091505092915050565b6000610d8f8383610cff565b905092915050565b6000602082019050919050565b6000610daf82610c0f565b610db98185610c1a565b935083602082028501610dcb85610c2b565b8060005b85811015610e075784840389528151610de88582610d83565b9450610df383610d97565b925060208a01995050600181019050610dcf565b50829750879550505050505092915050565b60006020820190508181036000830152610e338184610da4565b905092915050565b6000604051905090565b600080fd5b600080fd5b6000819050919050565b610e6281610e4f565b8114610e6d57600080fd5b50565b600081359050610e7f81610e59565b92915050565b600060208284031215610e9b57610e9a610e45565b5b6000610ea984828501610e70565b91505092915050565b600082825260208201905092915050565b6000610ece82610c3b565b610ed88185610eb2565b9350610ee8818560208601610c57565b610ef181610c81565b840191505092915050565b610f0581610ccb565b82525050565b610f1481610ce4565b82525050565b600060a0820190508181036000830152610f348188610ec3565b90508181036020830152610f488187610ec3565b9050610f576040830186610efc565b610f646060830185610f0b565b8181036080830152610f768184610ec3565b90509695505050505050565b600073ffffffffffffffffffffffffffffffffffffffff82169050919050565b6000610fad82610f82565b9050919050565b610fbd81610fa2565b82525050565b6000602082019050610fd86000830184610fb4565b92915050565b610fe781610ccb565b8114610ff257600080fd5b50565b60008135905061100481610fde565b92915050565b6000602082840312156110205761101f610e45565b5b600061102e84828501610ff5565b91505092915050565b61104081610e4f565b82525050565b600060208201905061105b6000830184611037565b92915050565b600080fd5b600080fd5b7f4e487b7100000000000000000000000000000000000000000000000000000000600052604160045260246000fd5b6110a382610c81565b810181811067ffffffffffffffff821117156110c2576110c161106b565b5b80604052505050565b60006110d5610e3b565b90506110e1828261109a565b919050565b600067ffffffffffffffff8211156111015761110061106b565b5b61110a82610c81565b9050602081019050919050565b82818337600083830152505050565b6000611139611134846110e6565b6110cb565b90508281526020810184848401111561115557611154611066565b5b611160848285611117565b509392505050565b600082601f83011261117d5761117c611061565b5b813561118d848260208601611126565b91505092915050565b6000806000606084860312156111af576111ae610e45565b5b600084013567ffffffffffffffff8111156111cd576111cc610e4a565b5b6111d986828701611168565b935050602084013567ffffffffffffffff8111156111fa576111f9610e4a565b5b61120686828701611168565b925050604084013567ffffffffffffffff81111561122757611226610e4a565b5b61123386828701611168565b9150509250925092565b600060a0820190506112526000830188610f0b565b81810360208301526112648187610ec3565b905081810360408301526112788186610ec3565b90506112876060830185610efc565b81810360808301526112998184610ec3565b90509695505050505050565b7f4e487b7100000000000000000000000000000000000000000000000000000000600052603260045260246000fd5b7f4e487b7100000000000000000000000000000000000000000000000000000000600052602260045260246000fd5b6000600282049050600182168061131b57607f821691505b60208210810361132e5761132d6112d4565b5b50919050565b7f4e6f7420617574686f72697a6564000000000000000000000000000000000000600082015250565b600061136a600e83610eb2565b915061137582611334565b602082019050919050565b600060208201905081810360008301526113998161135d565b9050919050565b600081905092915050565b60006113b682610c3b565b6113c081856113a0565b93506113d0818560208601610c57565b80840191505092915050565b6000819050919050565b6113f76113f282610ccb565b6113dc565b82525050565b600061140982866113ab565b915061141582856113ab565b915061142182846113e6565b602082019150819050949350505050565b60008190508160005260206000209050919050565b60006020601f8301049050919050565b600082821b905092915050565b6000600883026114947fffffffffffffffffffffffffffffffffffffffffffffffffffffffffffffffff82611457565b61149e8683611457565b95508019841693508086168417925050509392505050565b6000819050919050565b60006114db6114d66114d184610ccb565b6114b6565b610ccb565b9050919050565b6000819050919050565b6114f5836114c0565b611509611501826114e2565b848454611464565b825550505050565b600090565b61151e611511565b6115298184846114ec565b505050565b5b8181101561154d57611542600082611516565b60018101905061152f565b5050565b601f8211156115925761156381611432565b61156c84611447565b8101602085101561157b578190505b61158f61158785611447565b83018261152e565b50505b505050565b600082821c905092915050565b60006115b560001984600802611597565b1980831691505092915050565b60006115ce83836115a4565b9150826002028217905092915050565b6115e782610c3b565b67ffffffffffffffff811115611600576115ff61106b565b5b61160a8254611303565b611615828285611551565b600060209050601f8311600181146116485760008415611636578287015190505b61164085826115c2565b8655506116a8565b601f19841661165686611432565b60005b8281101561167e57848901518255600182019150602085019450602081019050611659565b8683101561169b5784890151611697601f8916826115a4565b8355505b6001600288020188555050505b505050505050565b600060608201905081810360008301526116ca8186610ec3565b905081810360208301526116de8185610ec3565b905081810360408301526116f28184610ec3565b9050949350505050565b7f4365727469666963617465206e6f7420666f756e64206f7220616c726561647960008201527f207265766f6b6564000000000000000000000000000000000000000000000000602082015250565b6000611758602883610eb2565b9150611763826116fc565b604082019050919050565b600060208201905081810360008301526117878161174b565b905091905056fea2646970667358221220b98adc5934208679858cff6e7b9f0aefd5474676f21133efc3a4f555a7758a9664736f6c634300081c0033",
  "linkReferences": {},
  "deployedLinkReferences": {}
}